{
	"data": {
		"bytecode": {
			"linkReferences": {},
			"object": "6080604052600060025534801561001557600080fd5b5060405161059438038061059483398181016040528101906100379190610087565b816000819055508060018190555050506100c7565b600080fd5b6000819050919050565b61006481610051565b811461006f57600080fd5b50565b6000815190506100818161005b565b92915050565b6000806040838503121561009e5761009d61004c565b5b60006100ac85828601610072565b92505060206100bd85828601610072565b9150509250929050565b6104be806100d66000396000f3fe60806040526004361061003f5760003560e01c806318160ddd146100445780633610724e1461006f5780635ed9ebfc1461008b578063945aab47146100b6575b600080fd5b34801561005057600080fd5b506100596100e1565b604051610066919061020f565b60405180910390f35b6100896004803603810190610084919061025b565b6100e7565b005b34801561009757600080fd5b506100a06101ea565b6040516100ad919061020f565b60405180910390f35b3480156100c257600080fd5b506100cb6101f0565b6040516100d8919061020f565b60405180910390f35b60005481565b600154816002546100f891906102b7565b1115610139576040517f08c379a00000000000000000000000000000000000000000000000000000000081526004016101309061036a565b60405180910390fd5b6000548160025461014a91906102b7565b111561018b576040517f08c379a0000000000000000000000000000000000000000000000000000000008152600401610182906103fc565b60405180910390fd5b803410156101ce576040517f08c379a00000000000000000000000000000000000000000000000000000000081526004016101c590610468565b60405180910390fd5b80600260008282546101e091906102b7565b9250508190555050565b60025481565b60015481565b6000819050919050565b610209816101f6565b82525050565b60006020820190506102246000830184610200565b92915050565b600080fd5b610238816101f6565b811461024357600080fd5b50565b6000813590506102558161022f565b92915050565b6000602082840312156102715761027061022a565b5b600061027f84828501610246565b91505092915050565b7f4e487b7100000000000000000000000000000000000000000000000000000000600052601160045260246000fd5b60006102c2826101f6565b91506102cd836101f6565b9250827fffffffffffffffffffffffffffffffffffffffffffffffffffffffffffffffff0382111561030257610301610288565b5b828201905092915050565b600082825260208201905092915050565b7f546f6b656e2073616c6520636170207265616368656400000000000000000000600082015250565b600061035460168361030d565b915061035f8261031e565b602082019050919050565b6000602082019050818103600083015261038381610347565b9050919050565b7f4e6f7420656e6f75676820746f6b656e7320617661696c61626c6520666f722060008201527f73616c6500000000000000000000000000000000000000000000000000000000602082015250565b60006103e660248361030d565b91506103f18261038a565b604082019050919050565b60006020820190508181036000830152610415816103d9565b9050919050565b7f4e6f7420656e6f7567682065746865722073656e740000000000000000000000600082015250565b600061045260158361030d565b915061045d8261041c565b602082019050919050565b6000602082019050818103600083015261048181610445565b905091905056fea2646970667358221220155e47bdb92f6cd8ee9331891578701a2a4f2f1c7beb33c4e24569064c4f923a64736f6c634300080d0033",
			"opcodes": "PUSH1 0x80 PUSH1 0x40 MSTORE PUSH1 0x0 PUSH1 0x2 SSTORE CALLVALUE DUP1 ISZERO PUSH2 0x15 JUMPI PUSH1 0x0 DUP1 REVERT JUMPDEST POP PUSH1 0x40 MLOAD PUSH2 0x594 CODESIZE SUB DUP1 PUSH2 0x594 DUP4 CODECOPY DUP2 DUP2 ADD PUSH1 0x40 MSTORE DUP2 ADD SWAP1 PUSH2 0x37 SWAP2 SWAP1 PUSH2 0x87 JUMP JUMPDEST DUP2 PUSH1 0x0 DUP2 SWAP1 SSTORE POP DUP1 PUSH1 0x1 DUP2 SWAP1 SSTORE POP POP POP PUSH2 0xC7 JUMP JUMPDEST PUSH1 0x0 DUP1 REVERT JUMPDEST PUSH1 0x0 DUP2 SWAP1 POP SWAP2 SWAP1 POP JUMP JUMPDEST PUSH2 0x64 DUP2 PUSH2 0x51 JUMP JUMPDEST DUP2 EQ PUSH2 0x6F JUMPI PUSH1 0x0 DUP1 REVERT JUMPDEST POP JUMP JUMPDEST PUSH1 0x0 DUP2 MLOAD SWAP1 POP PUSH2 0x81 DUP2 PUSH2 0x5B JUMP JUMPDEST SWAP3 SWAP2 POP POP JUMP JUMPDEST PUSH1 0x0 DUP1 PUSH1 0x40 DUP4 DUP6 SUB SLT ISZERO PUSH2 0x9E JUMPI PUSH2 0x9D PUSH2 0x4C JUMP JUMPDEST JUMPDEST PUSH1 0x0 PUSH2 0xAC DUP6 DUP3 DUP7 ADD PUSH2 0x72 JUMP JUMPDEST SWAP3 POP POP PUSH1 0x20 PUSH2 0xBD DUP6 DUP3 DUP7 ADD PUSH2 0x72 JUMP JUMPDEST SWAP2 POP POP SWAP3 POP SWAP3 SWAP1 POP JUMP JUMPDEST PUSH2 0x4BE DUP1 PUSH2 0xD6 PUSH1 0x0 CODECOPY PUSH1 0x0 RETURN INVALID PUSH1 0x80 PUSH1 0x40 MSTORE PUSH1 0x4 CALLDATASIZE LT PUSH2 0x3F JUMPI PUSH1 0x0 CALLDATALOAD PUSH1 0xE0 SHR DUP1 PUSH4 0x18160DDD EQ PUSH2 0x44 JUMPI DUP1 PUSH4 0x3610724E EQ PUSH2 0x6F JUMPI DUP1 PUSH4 0x5ED9EBFC EQ PUSH2 0x8B JUMPI DUP1 PUSH4 0x945AAB47 EQ PUSH2 0xB6 JUMPI JUMPDEST PUSH1 0x0 DUP1 REVERT JUMPDEST CALLVALUE DUP1 ISZERO PUSH2 0x50 JUMPI PUSH1 0x0 DUP1 REVERT JUMPDEST POP PUSH2 0x59 PUSH2 0xE1 JUMP JUMPDEST PUSH1 0x40 MLOAD PUSH2 0x66 SWAP2 SWAP1 PUSH2 0x20F JUMP JUMPDEST PUSH1 0x40 MLOAD DUP1 SWAP2 SUB SWAP1 RETURN JUMPDEST PUSH2 0x89 PUSH1 0x4 DUP1 CALLDATASIZE SUB DUP2 ADD SWAP1 PUSH2 0x84 SWAP2 SWAP1 PUSH2 0x25B JUMP JUMPDEST PUSH2 0xE7 JUMP JUMPDEST STOP JUMPDEST CALLVALUE DUP1 ISZERO PUSH2 0x97 JUMPI PUSH1 0x0 DUP1 REVERT JUMPDEST POP PUSH2 0xA0 PUSH2 0x1EA JUMP JUMPDEST PUSH1 0x40 MLOAD PUSH2 0xAD SWAP2 SWAP1 PUSH2 0x20F JUMP JUMPDEST PUSH1 0x40 MLOAD DUP1 SWAP2 SUB SWAP1 RETURN JUMPDEST CALLVALUE DUP1 ISZERO PUSH2 0xC2 JUMPI PUSH1 0x0 DUP1 REVERT JUMPDEST POP PUSH2 0xCB PUSH2 0x1F0 JUMP JUMPDEST PUSH1 0x40 MLOAD PUSH2 0xD8 SWAP2 SWAP1 PUSH2 0x20F JUMP JUMPDEST PUSH1 0x40 MLOAD DUP1 SWAP2 SUB SWAP1 RETURN JUMPDEST PUSH1 0x0 SLOAD DUP2 JUMP JUMPDEST PUSH1 0x1 SLOAD DUP2 PUSH1 0x2 SLOAD PUSH2 0xF8 SWAP2 SWAP1 PUSH2 0x2B7 JUMP JUMPDEST GT ISZERO PUSH2 0x139 JUMPI PUSH1 0x40 MLOAD PUSH32 0x8C379A000000000000000000000000000000000000000000000000000000000 DUP2 MSTORE PUSH1 0x4 ADD PUSH2 0x130 SWAP1 PUSH2 0x36A JUMP JUMPDEST PUSH1 0x40 MLOAD DUP1 SWAP2 SUB SWAP1 REVERT JUMPDEST PUSH1 0x0 SLOAD DUP2 PUSH1 0x2 SLOAD PUSH2 0x14A SWAP2 SWAP1 PUSH2 0x2B7 JUMP JUMPDEST GT ISZERO PUSH2 0x18B JUMPI PUSH1 0x40 MLOAD PUSH32 0x8C379A000000000000000000000000000000000000000000000000000000000 DUP2 MSTORE PUSH1 0x4 ADD PUSH2 0x182 SWAP1 PUSH2 0x3FC JUMP JUMPDEST PUSH1 0x40 MLOAD DUP1 SWAP2 SUB SWAP1 REVERT JUMPDEST DUP1 CALLVALUE LT ISZERO PUSH2 0x1CE JUMPI PUSH1 0x40 MLOAD PUSH32 0x8C379A000000000000000000000000000000000000000000000000000000000 DUP2 MSTORE PUSH1 0x4 ADD PUSH2 0x1C5 SWAP1 PUSH2 0x468 JUMP JUMPDEST PUSH1 0x40 MLOAD DUP1 SWAP2 SUB SWAP1 REVERT JUMPDEST DUP1 PUSH1 0x2 PUSH1 0x0 DUP3 DUP3 SLOAD PUSH2 0x1E0 SWAP2 SWAP1 PUSH2 0x2B7 JUMP JUMPDEST SWAP3 POP POP DUP2 SWAP1 SSTORE POP POP JUMP JUMPDEST PUSH1 0x2 SLOAD DUP2 JUMP JUMPDEST PUSH1 0x1 SLOAD DUP2 JUMP JUMPDEST PUSH1 0x0 DUP2 SWAP1 POP SWAP2 SWAP1 POP JUMP JUMPDEST PUSH2 0x209 DUP2 PUSH2 0x1F6 JUMP JUMPDEST DUP3 MSTORE POP POP JUMP JUMPDEST PUSH1 0x0 PUSH1 0x20 DUP3 ADD SWAP1 POP PUSH2 0x224 PUSH1 0x0 DUP4 ADD DUP5 PUSH2 0x200 JUMP JUMPDEST SWAP3 SWAP2 POP POP JUMP JUMPDEST PUSH1 0x0 DUP1 REVERT JUMPDEST PUSH2 0x238 DUP2 PUSH2 0x1F6 JUMP JUMPDEST DUP2 EQ PUSH2 0x243 JUMPI PUSH1 0x0 DUP1 REVERT JUMPDEST POP JUMP JUMPDEST PUSH1 0x0 DUP2 CALLDATALOAD SWAP1 POP PUSH2 0x255 DUP2 PUSH2 0x22F JUMP JUMPDEST SWAP3 SWAP2 POP POP JUMP JUMPDEST PUSH1 0x0 PUSH1 0x20 DUP3 DUP5 SUB SLT ISZERO PUSH2 0x271 JUMPI PUSH2 0x270 PUSH2 0x22A JUMP JUMPDEST JUMPDEST PUSH1 0x0 PUSH2 0x27F DUP5 DUP3 DUP6 ADD PUSH2 0x246 JUMP JUMPDEST SWAP2 POP POP SWAP3 SWAP2 POP POP JUMP JUMPDEST PUSH32 0x4E487B7100000000000000000000000000000000000000000000000000000000 PUSH1 0x0 MSTORE PUSH1 0x11 PUSH1 0x4 MSTORE PUSH1 0x24 PUSH1 0x0 REVERT JUMPDEST PUSH1 0x0 PUSH2 0x2C2 DUP3 PUSH2 0x1F6 JUMP JUMPDEST SWAP2 POP PUSH2 0x2CD DUP4 PUSH2 0x1F6 JUMP JUMPDEST SWAP3 POP DUP3 PUSH32 0xFFFFFFFFFFFFFFFFFFFFFFFFFFFFFFFFFFFFFFFFFFFFFFFFFFFFFFFFFFFFFFFF SUB DUP3 GT ISZERO PUSH2 0x302 JUMPI PUSH2 0x301 PUSH2 0x288 JUMP JUMPDEST JUMPDEST DUP3 DUP3 ADD SWAP1 POP SWAP3 SWAP2 POP POP JUMP JUMPDEST PUSH1 0x0 DUP3 DUP3 MSTORE PUSH1 0x20 DUP3 ADD SWAP1 POP SWAP3 SWAP2 POP POP JUMP JUMPDEST PUSH32 0x546F6B656E2073616C6520636170207265616368656400000000000000000000 PUSH1 0x0 DUP3 ADD MSTORE POP JUMP JUMPDEST PUSH1 0x0 PUSH2 0x354 PUSH1 0x16 DUP4 PUSH2 0x30D JUMP JUMPDEST SWAP2 POP PUSH2 0x35F DUP3 PUSH2 0x31E JUMP JUMPDEST PUSH1 0x20 DUP3 ADD SWAP1 POP SWAP2 SWAP1 POP JUMP JUMPDEST PUSH1 0x0 PUSH1 0x20 DUP3 ADD SWAP1 POP DUP2 DUP2 SUB PUSH1 0x0 DUP4 ADD MSTORE PUSH2 0x383 DUP2 PUSH2 0x347 JUMP JUMPDEST SWAP1 POP SWAP2 SWAP1 POP JUMP JUMPDEST PUSH32 0x4E6F7420656E6F75676820746F6B656E7320617661696C61626C6520666F7220 PUSH1 0x0 DUP3 ADD MSTORE PUSH32 0x73616C6500000000000000000000000000000000000000000000000000000000 PUSH1 0x20 DUP3 ADD MSTORE POP JUMP JUMPDEST PUSH1 0x0 PUSH2 0x3E6 PUSH1 0x24 DUP4 PUSH2 0x30D JUMP JUMPDEST SWAP2 POP PUSH2 0x3F1 DUP3 PUSH2 0x38A JUMP JUMPDEST PUSH1 0x40 DUP3 ADD SWAP1 POP SWAP2 SWAP1 POP JUMP JUMPDEST PUSH1 0x0 PUSH1 0x20 DUP3 ADD SWAP1 POP DUP2 DUP2 SUB PUSH1 0x0 DUP4 ADD MSTORE PUSH2 0x415 DUP2 PUSH2 0x3D9 JUMP JUMPDEST SWAP1 POP SWAP2 SWAP1 POP JUMP JUMPDEST PUSH32 0x4E6F7420656E6F7567682065746865722073656E740000000000000000000000 PUSH1 0x0 DUP3 ADD MSTORE POP JUMP JUMPDEST PUSH1 0x0 PUSH2 0x452 PUSH1 0x15 DUP4 PUSH2 0x30D JUMP JUMPDEST SWAP2 POP PUSH2 0x45D DUP3 PUSH2 0x41C JUMP JUMPDEST PUSH1 0x20 DUP3 ADD SWAP1 POP SWAP2 SWAP1 POP JUMP JUMPDEST PUSH1 0x0 PUSH1 0x20 DUP3 ADD SWAP1 POP DUP2 DUP2 SUB PUSH1 0x0 DUP4 ADD MSTORE PUSH2 0x481 DUP2 PUSH2 0x445 JUMP JUMPDEST SWAP1 POP SWAP2 SWAP1 POP JUMP INVALID LOG2 PUSH5 0x6970667358 0x22 SLT KECCAK256 ISZERO 0x5E SELFBALANCE 0xBD 0xB9 0x2F PUSH13 0xD8EE9331891578701A2A4F2F1C PUSH28 0xEB33C4E24569064C4F923A64736F6C634300080D0033000000000000 "
		},
		"gasEstimates": {
			"creation": {
				"codeDepositCost": "242800",
				"executionCost": "infinite",
				"totalCost": "infinite"
			},
			"external": {
				"buyTokens(uint256)": "infinite",
				"soldTokens()": "2451",
				"tokenSaleCap()": "2473",
				"totalSupply()": "2407"
			}
		},
		"methodIdentifiers": {
			"buyTokens(uint256)": "3610724e",
			"soldTokens()": "5ed9ebfc",
			"tokenSaleCap()": "945aab47",
			"totalSupply()": "18160ddd"
		}
	},
	"abi": [
		{
			"inputs": [
				{
					"internalType": "uint256",
					"name": "_totalSupply",
					"type": "uint256"
				},
				{
					"internalType": "uint256",
					"name": "_tokenSaleCap",
					"type": "uint256"
				}
			],
			"stateMutability": "nonpayable",
			"type": "constructor"
		},
		{
			"inputs": [
				{
					"internalType": "uint256",
					"name": "_amount",
					"type": "uint256"
				}
			],
			"name": "buyTokens",
			"outputs": [],
			"stateMutability": "payable",
			"type": "function"
		},
		{
			"inputs": [],
			"name": "soldTokens",
			"outputs": [
				{
					"internalType": "uint256",
					"name": "",
					"type": "uint256"
				}
			],
			"stateMutability": "view",
			"type": "function"
		},
		{
			"inputs": [],
			"name": "tokenSaleCap",
			"outputs": [
				{
					"internalType": "uint256",
					"name": "",
					"type": "uint256"
				}
			],
			"stateMutability": "view",
			"type": "function"
		},
		{
			"inputs": [],
			"name": "totalSupply",
			"outputs": [
				{
					"internalType": "uint256",
					"name": "",
					"type": "uint256"
				}
			],
			"stateMutability": "view",
			"type": "function"
		}
	]
}